{
  "_format": "hh-sol-artifact-1",
  "contractName": "NFT",
  "sourceName": "contracts/NFT.sol",
  "abi": [
    {
      "inputs": [],
      "stateMutability": "nonpayable",
      "type": "constructor"
    },
    {
      "anonymous": false,
      "inputs": [
        {
          "indexed": true,
          "internalType": "address",
          "name": "owner",
          "type": "address"
        },
        {
          "indexed": true,
          "internalType": "address",
          "name": "approved",
          "type": "address"
        },
        {
          "indexed": true,
          "internalType": "uint256",
          "name": "tokenId",
          "type": "uint256"
        }
      ],
      "name": "Approval",
      "type": "event"
    },
    {
      "anonymous": false,
      "inputs": [
        {
          "indexed": true,
          "internalType": "address",
          "name": "owner",
          "type": "address"
        },
        {
          "indexed": true,
          "internalType": "address",
          "name": "operator",
          "type": "address"
        },
        {
          "indexed": false,
          "internalType": "bool",
          "name": "approved",
          "type": "bool"
        }
      ],
      "name": "ApprovalForAll",
      "type": "event"
    },
    {
      "anonymous": false,
      "inputs": [
        {
          "indexed": true,
          "internalType": "address",
          "name": "previousOwner",
          "type": "address"
        },
        {
          "indexed": true,
          "internalType": "address",
          "name": "newOwner",
          "type": "address"
        }
      ],
      "name": "OwnershipTransferred",
      "type": "event"
    },
    {
      "anonymous": false,
      "inputs": [
        {
          "indexed": true,
          "internalType": "address",
          "name": "from",
          "type": "address"
        },
        {
          "indexed": true,
          "internalType": "address",
          "name": "to",
          "type": "address"
        },
        {
          "indexed": true,
          "internalType": "uint256",
          "name": "tokenId",
          "type": "uint256"
        }
      ],
      "name": "Transfer",
      "type": "event"
    },
    {
      "inputs": [
        {
          "internalType": "address",
          "name": "to",
          "type": "address"
        },
        {
          "internalType": "uint256",
          "name": "tokenId",
          "type": "uint256"
        }
      ],
      "name": "approve",
      "outputs": [],
      "stateMutability": "nonpayable",
      "type": "function"
    },
    {
      "inputs": [
        {
          "internalType": "address",
          "name": "owner",
          "type": "address"
        }
      ],
      "name": "balanceOf",
      "outputs": [
        {
          "internalType": "uint256",
          "name": "",
          "type": "uint256"
        }
      ],
      "stateMutability": "view",
      "type": "function"
    },
    {
      "inputs": [
        {
          "internalType": "uint256",
          "name": "tokenId",
          "type": "uint256"
        }
      ],
      "name": "getApproved",
      "outputs": [
        {
          "internalType": "address",
          "name": "",
          "type": "address"
        }
      ],
      "stateMutability": "view",
      "type": "function"
    },
    {
      "inputs": [
        {
          "internalType": "address",
          "name": "owner",
          "type": "address"
        },
        {
          "internalType": "address",
          "name": "operator",
          "type": "address"
        }
      ],
      "name": "isApprovedForAll",
      "outputs": [
        {
          "internalType": "bool",
          "name": "",
          "type": "bool"
        }
      ],
      "stateMutability": "view",
      "type": "function"
    },
    {
      "inputs": [],
      "name": "name",
      "outputs": [
        {
          "internalType": "string",
          "name": "",
          "type": "string"
        }
      ],
      "stateMutability": "view",
      "type": "function"
    },
    {
      "inputs": [],
      "name": "owner",
      "outputs": [
        {
          "internalType": "address",
          "name": "",
          "type": "address"
        }
      ],
      "stateMutability": "view",
      "type": "function"
    },
    {
      "inputs": [
        {
          "internalType": "uint256",
          "name": "tokenId",
          "type": "uint256"
        }
      ],
      "name": "ownerOf",
      "outputs": [
        {
          "internalType": "address",
          "name": "",
          "type": "address"
        }
      ],
      "stateMutability": "view",
      "type": "function"
    },
    {
      "inputs": [],
      "name": "renounceOwnership",
      "outputs": [],
      "stateMutability": "nonpayable",
      "type": "function"
    },
    {
      "inputs": [
        {
          "internalType": "address",
          "name": "from",
          "type": "address"
        },
        {
          "internalType": "address",
          "name": "to",
          "type": "address"
        },
        {
          "internalType": "uint256",
          "name": "tokenId",
          "type": "uint256"
        }
      ],
      "name": "safeTransferFrom",
      "outputs": [],
      "stateMutability": "nonpayable",
      "type": "function"
    },
    {
      "inputs": [
        {
          "internalType": "address",
          "name": "from",
          "type": "address"
        },
        {
          "internalType": "address",
          "name": "to",
          "type": "address"
        },
        {
          "internalType": "uint256",
          "name": "tokenId",
          "type": "uint256"
        },
        {
          "internalType": "bytes",
          "name": "data",
          "type": "bytes"
        }
      ],
      "name": "safeTransferFrom",
      "outputs": [],
      "stateMutability": "nonpayable",
      "type": "function"
    },
    {
      "inputs": [
        {
          "internalType": "address",
          "name": "operator",
          "type": "address"
        },
        {
          "internalType": "bool",
          "name": "approved",
          "type": "bool"
        }
      ],
      "name": "setApprovalForAll",
      "outputs": [],
      "stateMutability": "nonpayable",
      "type": "function"
    },
    {
      "inputs": [
        {
          "internalType": "bytes4",
          "name": "interfaceId",
          "type": "bytes4"
        }
      ],
      "name": "supportsInterface",
      "outputs": [
        {
          "internalType": "bool",
          "name": "",
          "type": "bool"
        }
      ],
      "stateMutability": "view",
      "type": "function"
    },
    {
      "inputs": [],
      "name": "symbol",
      "outputs": [
        {
          "internalType": "string",
          "name": "",
          "type": "string"
        }
      ],
      "stateMutability": "view",
      "type": "function"
    },
    {
      "inputs": [
        {
          "internalType": "uint256",
          "name": "tokenId",
          "type": "uint256"
        }
      ],
      "name": "tokenURI",
      "outputs": [
        {
          "internalType": "string",
          "name": "",
          "type": "string"
        }
      ],
      "stateMutability": "view",
      "type": "function"
    },
    {
      "inputs": [
        {
          "internalType": "address",
          "name": "from",
          "type": "address"
        },
        {
          "internalType": "address",
          "name": "to",
          "type": "address"
        },
        {
          "internalType": "uint256",
          "name": "tokenId",
          "type": "uint256"
        }
      ],
      "name": "transferFrom",
      "outputs": [],
      "stateMutability": "nonpayable",
      "type": "function"
    },
    {
      "inputs": [
        {
          "internalType": "address",
          "name": "newOwner",
          "type": "address"
        }
      ],
      "name": "transferOwnership",
      "outputs": [],
      "stateMutability": "nonpayable",
      "type": "function"
    }
  ],
  "bytecode": "0x60806040523480156200001157600080fd5b506040518060400160405280600581526020017f4d794e46540000000000000000000000000000000000000000000000000000008152506040518060400160405280600381526020017f4e4654000000000000000000000000000000000000000000000000000000000081525081600090816200008f919062000984565b508060019081620000a1919062000984565b505050620000c4620000b86200014060201b60201c565b6200014860201b60201c565b620000e067b46581016324c99760c01b6200020e60201b60201c565b620000fc67a008908ed7213f4f60c01b6200020e60201b60201c565b6200011867226d39948af30ad960c01b6200020e60201b60201c565b6200013a6200012c6200021160201b60201c565b60006200023b60201b60201c565b62000e3a565b600033905090565b6000600660009054906101000a900473ffffffffffffffffffffffffffffffffffffffff16905081600660006101000a81548173ffffffffffffffffffffffffffffffffffffffff021916908373ffffffffffffffffffffffffffffffffffffffff1602179055508173ffffffffffffffffffffffffffffffffffffffff168173ffffffffffffffffffffffffffffffffffffffff167f8be0079c531659141344cd1fd0a4f28419497f9722a3daafe3b4186f6b6457e060405160405180910390a35050565b50565b6000600660009054906101000a900473ffffffffffffffffffffffffffffffffffffffff16905090565b6200025d8282604051806020016040528060008152506200026160201b60201c565b5050565b620002738383620002cf60201b60201c565b620002886000848484620004c860201b60201c565b620002ca576040517f08c379a0000000000000000000000000000000000000000000000000000000008152600401620002c19062000af2565b60405180910390fd5b505050565b600073ffffffffffffffffffffffffffffffffffffffff168273ffffffffffffffffffffffffffffffffffffffff160362000341576040517f08c379a0000000000000000000000000000000000000000000000000000000008152600401620003389062000b64565b60405180910390fd5b62000352816200067160201b60201c565b1562000395576040517f08c379a00000000000000000000000000000000000000000000000000000000081526004016200038c9062000bd6565b60405180910390fd5b620003a960008383620006dd60201b60201c565b6001600360008473ffffffffffffffffffffffffffffffffffffffff1673ffffffffffffffffffffffffffffffffffffffff1681526020019081526020016000206000828254620003fb919062000c27565b92505081905550816002600083815260200190815260200160002060006101000a81548173ffffffffffffffffffffffffffffffffffffffff021916908373ffffffffffffffffffffffffffffffffffffffff160217905550808273ffffffffffffffffffffffffffffffffffffffff16600073ffffffffffffffffffffffffffffffffffffffff167fddf252ad1be2c89b69c2b068fc378daa952ba7f163c4a11628f55a4df523b3ef60405160405180910390a4620004c460008383620006e260201b60201c565b5050565b6000620004f68473ffffffffffffffffffffffffffffffffffffffff16620006e760201b62000ab11760201c565b1562000664578373ffffffffffffffffffffffffffffffffffffffff1663150b7a02620005286200014060201b60201c565b8786866040518563ffffffff1660e01b81526004016200054c949392919062000d52565b6020604051808303816000875af19250505080156200058b57506040513d601f19601f8201168201806040525081019062000588919062000e08565b60015b62000613573d8060008114620005be576040519150601f19603f3d011682016040523d82523d6000602084013e620005c3565b606091505b5060008151036200060b576040517f08c379a0000000000000000000000000000000000000000000000000000000008152600401620006029062000af2565b60405180910390fd5b805181602001fd5b63150b7a0260e01b7bffffffffffffffffffffffffffffffffffffffffffffffffffffffff1916817bffffffffffffffffffffffffffffffffffffffffffffffffffffffff19161491505062000669565b600190505b949350505050565b60008073ffffffffffffffffffffffffffffffffffffffff166002600084815260200190815260200160002060009054906101000a900473ffffffffffffffffffffffffffffffffffffffff1673ffffffffffffffffffffffffffffffffffffffff1614159050919050565b505050565b505050565b6000808273ffffffffffffffffffffffffffffffffffffffff163b119050919050565b600081519050919050565b7f4e487b7100000000000000000000000000000000000000000000000000000000600052604160045260246000fd5b7f4e487b7100000000000000000000000000000000000000000000000000000000600052602260045260246000fd5b600060028204905060018216806200078c57607f821691505b602082108103620007a257620007a162000744565b5b50919050565b60008190508160005260206000209050919050565b60006020601f8301049050919050565b600082821b905092915050565b6000600883026200080c7fffffffffffffffffffffffffffffffffffffffffffffffffffffffffffffffff82620007cd565b620008188683620007cd565b95508019841693508086168417925050509392505050565b6000819050919050565b6000819050919050565b6000620008656200085f620008598462000830565b6200083a565b62000830565b9050919050565b6000819050919050565b620008818362000844565b6200089962000890826200086c565b848454620007da565b825550505050565b600090565b620008b0620008a1565b620008bd81848462000876565b505050565b5b81811015620008e557620008d9600082620008a6565b600181019050620008c3565b5050565b601f8211156200093457620008fe81620007a8565b6200090984620007bd565b8101602085101562000919578190505b620009316200092885620007bd565b830182620008c2565b50505b505050565b600082821c905092915050565b6000620009596000198460080262000939565b1980831691505092915050565b600062000974838362000946565b9150826002028217905092915050565b6200098f826200070a565b67ffffffffffffffff811115620009ab57620009aa62000715565b5b620009b7825462000773565b620009c4828285620008e9565b600060209050601f831160018114620009fc5760008415620009e7578287015190505b620009f3858262000966565b86555062000a63565b601f19841662000a0c86620007a8565b60005b8281101562000a365784890151825560018201915060208501945060208101905062000a0f565b8683101562000a56578489015162000a52601f89168262000946565b8355505b6001600288020188555050505b505050505050565b600082825260208201905092915050565b7f4552433732313a207472616e7366657220746f206e6f6e20455243373231526560008201527f63656976657220696d706c656d656e7465720000000000000000000000000000602082015250565b600062000ada60328362000a6b565b915062000ae78262000a7c565b604082019050919050565b6000602082019050818103600083015262000b0d8162000acb565b9050919050565b7f4552433732313a206d696e7420746f20746865207a65726f2061646472657373600082015250565b600062000b4c60208362000a6b565b915062000b598262000b14565b602082019050919050565b6000602082019050818103600083015262000b7f8162000b3d565b9050919050565b7f4552433732313a20746f6b656e20616c7265616479206d696e74656400000000600082015250565b600062000bbe601c8362000a6b565b915062000bcb8262000b86565b602082019050919050565b6000602082019050818103600083015262000bf18162000baf565b9050919050565b7f4e487b7100000000000000000000000000000000000000000000000000000000600052601160045260246000fd5b600062000c348262000830565b915062000c418362000830565b925082820190508082111562000c5c5762000c5b62000bf8565b5b92915050565b600073ffffffffffffffffffffffffffffffffffffffff82169050919050565b600062000c8f8262000c62565b9050919050565b62000ca18162000c82565b82525050565b62000cb28162000830565b82525050565b600081519050919050565b600082825260208201905092915050565b60005b8381101562000cf457808201518184015260208101905062000cd7565b60008484015250505050565b6000601f19601f8301169050919050565b600062000d1e8262000cb8565b62000d2a818562000cc3565b935062000d3c81856020860162000cd4565b62000d478162000d00565b840191505092915050565b600060808201905062000d69600083018762000c96565b62000d78602083018662000c96565b62000d87604083018562000ca7565b818103606083015262000d9b818462000d11565b905095945050505050565b600080fd5b60007fffffffff0000000000000000000000000000000000000000000000000000000082169050919050565b62000de28162000dab565b811462000dee57600080fd5b50565b60008151905062000e028162000dd7565b92915050565b60006020828403121562000e215762000e2062000da6565b5b600062000e318482850162000df1565b91505092915050565b6124cb8062000e4a6000396000f3fe608060405234801561001057600080fd5b50600436106101005760003560e01c8063715018a611610097578063b88d4fde11610066578063b88d4fde14610299578063c87b56dd146102b5578063e985e9c5146102e5578063f2fde38b1461031557610100565b8063715018a6146102375780638da5cb5b1461024157806395d89b411461025f578063a22cb4651461027d57610100565b806323b872dd116100d357806323b872dd1461019f57806342842e0e146101bb5780636352211e146101d757806370a082311461020757610100565b806301ffc9a71461010557806306fdde0314610135578063081812fc14610153578063095ea7b314610183575b600080fd5b61011f600480360381019061011a9190611631565b610331565b60405161012c9190611679565b60405180910390f35b61013d610413565b60405161014a9190611724565b60405180910390f35b61016d6004803603810190610168919061177c565b6104a5565b60405161017a91906117ea565b60405180910390f35b61019d60048036038101906101989190611831565b6104eb565b005b6101b960048036038101906101b49190611871565b610602565b005b6101d560048036038101906101d09190611871565b610662565b005b6101f160048036038101906101ec919061177c565b610682565b6040516101fe91906117ea565b60405180910390f35b610221600480360381019061021c91906118c4565b610733565b60405161022e9190611900565b60405180910390f35b61023f6107ea565b005b6102496107fe565b60405161025691906117ea565b60405180910390f35b610267610828565b6040516102749190611724565b60405180910390f35b61029760048036038101906102929190611947565b6108ba565b005b6102b360048036038101906102ae9190611abc565b6108d0565b005b6102cf60048036038101906102ca919061177c565b610932565b6040516102dc9190611724565b60405180910390f35b6102ff60048036038101906102fa9190611b3f565b61099a565b60405161030c9190611679565b60405180910390f35b61032f600480360381019061032a91906118c4565b610a2e565b005b60007f80ac58cd000000000000000000000000000000000000000000000000000000007bffffffffffffffffffffffffffffffffffffffffffffffffffffffff1916827bffffffffffffffffffffffffffffffffffffffffffffffffffffffff191614806103fc57507f5b5e139f000000000000000000000000000000000000000000000000000000007bffffffffffffffffffffffffffffffffffffffffffffffffffffffff1916827bffffffffffffffffffffffffffffffffffffffffffffffffffffffff1916145b8061040c575061040b82610ad4565b5b9050919050565b60606000805461042290611bae565b80601f016020809104026020016040519081016040528092919081815260200182805461044e90611bae565b801561049b5780601f106104705761010080835404028352916020019161049b565b820191906000526020600020905b81548152906001019060200180831161047e57829003601f168201915b5050505050905090565b60006104b082610b3e565b6004600083815260200190815260200160002060009054906101000a900473ffffffffffffffffffffffffffffffffffffffff169050919050565b60006104f682610682565b90508073ffffffffffffffffffffffffffffffffffffffff168373ffffffffffffffffffffffffffffffffffffffff1603610566576040517f08c379a000000000000000000000000000000000000000000000000000000000815260040161055d90611c51565b60405180910390fd5b8073ffffffffffffffffffffffffffffffffffffffff16610585610b89565b73ffffffffffffffffffffffffffffffffffffffff1614806105b457506105b3816105ae610b89565b61099a565b5b6105f3576040517f08c379a00000000000000000000000000000000000000000000000000000000081526004016105ea90611ce3565b60405180910390fd5b6105fd8383610b91565b505050565b61061361060d610b89565b82610c4a565b610652576040517f08c379a000000000000000000000000000000000000000000000000000000000815260040161064990611d75565b60405180910390fd5b61065d838383610cdf565b505050565b61067d838383604051806020016040528060008152506108d0565b505050565b6000806002600084815260200190815260200160002060009054906101000a900473ffffffffffffffffffffffffffffffffffffffff169050600073ffffffffffffffffffffffffffffffffffffffff168173ffffffffffffffffffffffffffffffffffffffff160361072a576040517f08c379a000000000000000000000000000000000000000000000000000000000815260040161072190611de1565b60405180910390fd5b80915050919050565b60008073ffffffffffffffffffffffffffffffffffffffff168273ffffffffffffffffffffffffffffffffffffffff16036107a3576040517f08c379a000000000000000000000000000000000000000000000000000000000815260040161079a90611e73565b60405180910390fd5b600360008373ffffffffffffffffffffffffffffffffffffffff1673ffffffffffffffffffffffffffffffffffffffff168152602001908152602001600020549050919050565b6107f2610f45565b6107fc6000610fc3565b565b6000600660009054906101000a900473ffffffffffffffffffffffffffffffffffffffff16905090565b60606001805461083790611bae565b80601f016020809104026020016040519081016040528092919081815260200182805461086390611bae565b80156108b05780601f10610885576101008083540402835291602001916108b0565b820191906000526020600020905b81548152906001019060200180831161089357829003601f168201915b5050505050905090565b6108cc6108c5610b89565b8383611089565b5050565b6108e16108db610b89565b83610c4a565b610920576040517f08c379a000000000000000000000000000000000000000000000000000000000815260040161091790611d75565b60405180910390fd5b61092c848484846111f5565b50505050565b606061093d82610b3e565b6000610947611251565b905060008151116109675760405180602001604052806000815250610992565b8061097184611268565b604051602001610982929190611ecf565b6040516020818303038152906040525b915050919050565b6000600560008473ffffffffffffffffffffffffffffffffffffffff1673ffffffffffffffffffffffffffffffffffffffff16815260200190815260200160002060008373ffffffffffffffffffffffffffffffffffffffff1673ffffffffffffffffffffffffffffffffffffffff16815260200190815260200160002060009054906101000a900460ff16905092915050565b610a36610f45565b600073ffffffffffffffffffffffffffffffffffffffff168173ffffffffffffffffffffffffffffffffffffffff1603610aa5576040517f08c379a0000000000000000000000000000000000000000000000000000000008152600401610a9c90611f65565b60405180910390fd5b610aae81610fc3565b50565b6000808273ffffffffffffffffffffffffffffffffffffffff163b119050919050565b60007f01ffc9a7000000000000000000000000000000000000000000000000000000007bffffffffffffffffffffffffffffffffffffffffffffffffffffffff1916827bffffffffffffffffffffffffffffffffffffffffffffffffffffffff1916149050919050565b610b47816113c8565b610b86576040517f08c379a0000000000000000000000000000000000000000000000000000000008152600401610b7d90611de1565b60405180910390fd5b50565b600033905090565b816004600083815260200190815260200160002060006101000a81548173ffffffffffffffffffffffffffffffffffffffff021916908373ffffffffffffffffffffffffffffffffffffffff160217905550808273ffffffffffffffffffffffffffffffffffffffff16610c0483610682565b73ffffffffffffffffffffffffffffffffffffffff167f8c5be1e5ebec7d5bd14f71427d1e84f3dd0314c0f7b2291e5b200ac8c7c3b92560405160405180910390a45050565b600080610c5683610682565b90508073ffffffffffffffffffffffffffffffffffffffff168473ffffffffffffffffffffffffffffffffffffffff161480610c985750610c97818561099a565b5b80610cd657508373ffffffffffffffffffffffffffffffffffffffff16610cbe846104a5565b73ffffffffffffffffffffffffffffffffffffffff16145b91505092915050565b8273ffffffffffffffffffffffffffffffffffffffff16610cff82610682565b73ffffffffffffffffffffffffffffffffffffffff1614610d55576040517f08c379a0000000000000000000000000000000000000000000000000000000008152600401610d4c90611ff7565b60405180910390fd5b600073ffffffffffffffffffffffffffffffffffffffff168273ffffffffffffffffffffffffffffffffffffffff1603610dc4576040517f08c379a0000000000000000000000000000000000000000000000000000000008152600401610dbb90612089565b60405180910390fd5b610dcf838383611434565b610dda600082610b91565b6001600360008573ffffffffffffffffffffffffffffffffffffffff1673ffffffffffffffffffffffffffffffffffffffff1681526020019081526020016000206000828254610e2a91906120d8565b925050819055506001600360008473ffffffffffffffffffffffffffffffffffffffff1673ffffffffffffffffffffffffffffffffffffffff1681526020019081526020016000206000828254610e81919061210c565b92505081905550816002600083815260200190815260200160002060006101000a81548173ffffffffffffffffffffffffffffffffffffffff021916908373ffffffffffffffffffffffffffffffffffffffff160217905550808273ffffffffffffffffffffffffffffffffffffffff168473ffffffffffffffffffffffffffffffffffffffff167fddf252ad1be2c89b69c2b068fc378daa952ba7f163c4a11628f55a4df523b3ef60405160405180910390a4610f40838383611439565b505050565b610f4d610b89565b73ffffffffffffffffffffffffffffffffffffffff16610f6b6107fe565b73ffffffffffffffffffffffffffffffffffffffff1614610fc1576040517f08c379a0000000000000000000000000000000000000000000000000000000008152600401610fb89061218c565b60405180910390fd5b565b6000600660009054906101000a900473ffffffffffffffffffffffffffffffffffffffff16905081600660006101000a81548173ffffffffffffffffffffffffffffffffffffffff021916908373ffffffffffffffffffffffffffffffffffffffff1602179055508173ffffffffffffffffffffffffffffffffffffffff168173ffffffffffffffffffffffffffffffffffffffff167f8be0079c531659141344cd1fd0a4f28419497f9722a3daafe3b4186f6b6457e060405160405180910390a35050565b8173ffffffffffffffffffffffffffffffffffffffff168373ffffffffffffffffffffffffffffffffffffffff16036110f7576040517f08c379a00000000000000000000000000000000000000000000000000000000081526004016110ee906121f8565b60405180910390fd5b80600560008573ffffffffffffffffffffffffffffffffffffffff1673ffffffffffffffffffffffffffffffffffffffff16815260200190815260200160002060008473ffffffffffffffffffffffffffffffffffffffff1673ffffffffffffffffffffffffffffffffffffffff16815260200190815260200160002060006101000a81548160ff0219169083151502179055508173ffffffffffffffffffffffffffffffffffffffff168373ffffffffffffffffffffffffffffffffffffffff167f17307eab39ab6107e8899845ad3d59bd9653f200f220920489ca2b5937696c31836040516111e89190611679565b60405180910390a3505050565b611200848484610cdf565b61120c8484848461143e565b61124b576040517f08c379a00000000000000000000000000000000000000000000000000000000081526004016112429061228a565b60405180910390fd5b50505050565b606060405180602001604052806000815250905090565b6060600082036112af576040518060400160405280600181526020017f300000000000000000000000000000000000000000000000000000000000000081525090506113c3565b600082905060005b600082146112e15780806112ca906122aa565b915050600a826112da9190612321565b91506112b7565b60008167ffffffffffffffff8111156112fd576112fc611991565b5b6040519080825280601f01601f19166020018201604052801561132f5781602001600182028036833780820191505090505b5090505b600085146113bc5760018261134891906120d8565b9150600a856113579190612352565b6030611363919061210c565b60f81b81838151811061137957611378612383565b5b60200101907effffffffffffffffffffffffffffffffffffffffffffffffffffffffffffff1916908160001a905350600a856113b59190612321565b9450611333565b8093505050505b919050565b60008073ffffffffffffffffffffffffffffffffffffffff166002600084815260200190815260200160002060009054906101000a900473ffffffffffffffffffffffffffffffffffffffff1673ffffffffffffffffffffffffffffffffffffffff1614159050919050565b505050565b505050565b600061145f8473ffffffffffffffffffffffffffffffffffffffff16610ab1565b156115b8578373ffffffffffffffffffffffffffffffffffffffff1663150b7a02611488610b89565b8786866040518563ffffffff1660e01b81526004016114aa9493929190612407565b6020604051808303816000875af19250505080156114e657506040513d601f19601f820116820180604052508101906114e39190612468565b60015b611568573d8060008114611516576040519150601f19603f3d011682016040523d82523d6000602084013e61151b565b606091505b506000815103611560576040517f08c379a00000000000000000000000000000000000000000000000000000000081526004016115579061228a565b60405180910390fd5b805181602001fd5b63150b7a0260e01b7bffffffffffffffffffffffffffffffffffffffffffffffffffffffff1916817bffffffffffffffffffffffffffffffffffffffffffffffffffffffff1916149150506115bd565b600190505b949350505050565b6000604051905090565b600080fd5b600080fd5b60007fffffffff0000000000000000000000000000000000000000000000000000000082169050919050565b61160e816115d9565b811461161957600080fd5b50565b60008135905061162b81611605565b92915050565b600060208284031215611647576116466115cf565b5b60006116558482850161161c565b91505092915050565b60008115159050919050565b6116738161165e565b82525050565b600060208201905061168e600083018461166a565b92915050565b600081519050919050565b600082825260208201905092915050565b60005b838110156116ce5780820151818401526020810190506116b3565b60008484015250505050565b6000601f19601f8301169050919050565b60006116f682611694565b611700818561169f565b93506117108185602086016116b0565b611719816116da565b840191505092915050565b6000602082019050818103600083015261173e81846116eb565b905092915050565b6000819050919050565b61175981611746565b811461176457600080fd5b50565b60008135905061177681611750565b92915050565b600060208284031215611792576117916115cf565b5b60006117a084828501611767565b91505092915050565b600073ffffffffffffffffffffffffffffffffffffffff82169050919050565b60006117d4826117a9565b9050919050565b6117e4816117c9565b82525050565b60006020820190506117ff60008301846117db565b92915050565b61180e816117c9565b811461181957600080fd5b50565b60008135905061182b81611805565b92915050565b60008060408385031215611848576118476115cf565b5b60006118568582860161181c565b925050602061186785828601611767565b9150509250929050565b60008060006060848603121561188a576118896115cf565b5b60006118988682870161181c565b93505060206118a98682870161181c565b92505060406118ba86828701611767565b9150509250925092565b6000602082840312156118da576118d96115cf565b5b60006118e88482850161181c565b91505092915050565b6118fa81611746565b82525050565b600060208201905061191560008301846118f1565b92915050565b6119248161165e565b811461192f57600080fd5b50565b6000813590506119418161191b565b92915050565b6000806040838503121561195e5761195d6115cf565b5b600061196c8582860161181c565b925050602061197d85828601611932565b9150509250929050565b600080fd5b600080fd5b7f4e487b7100000000000000000000000000000000000000000000000000000000600052604160045260246000fd5b6119c9826116da565b810181811067ffffffffffffffff821117156119e8576119e7611991565b5b80604052505050565b60006119fb6115c5565b9050611a0782826119c0565b919050565b600067ffffffffffffffff821115611a2757611a26611991565b5b611a30826116da565b9050602081019050919050565b82818337600083830152505050565b6000611a5f611a5a84611a0c565b6119f1565b905082815260208101848484011115611a7b57611a7a61198c565b5b611a86848285611a3d565b509392505050565b600082601f830112611aa357611aa2611987565b5b8135611ab3848260208601611a4c565b91505092915050565b60008060008060808587031215611ad657611ad56115cf565b5b6000611ae48782880161181c565b9450506020611af58782880161181c565b9350506040611b0687828801611767565b925050606085013567ffffffffffffffff811115611b2757611b266115d4565b5b611b3387828801611a8e565b91505092959194509250565b60008060408385031215611b5657611b556115cf565b5b6000611b648582860161181c565b9250506020611b758582860161181c565b9150509250929050565b7f4e487b7100000000000000000000000000000000000000000000000000000000600052602260045260246000fd5b60006002820490506001821680611bc657607f821691505b602082108103611bd957611bd8611b7f565b5b50919050565b7f4552433732313a20617070726f76616c20746f2063757272656e74206f776e6560008201527f7200000000000000000000000000000000000000000000000000000000000000602082015250565b6000611c3b60218361169f565b9150611c4682611bdf565b604082019050919050565b60006020820190508181036000830152611c6a81611c2e565b9050919050565b7f4552433732313a20617070726f76652063616c6c6572206973206e6f7420746f60008201527f6b656e206f776e6572206e6f7220617070726f76656420666f7220616c6c0000602082015250565b6000611ccd603e8361169f565b9150611cd882611c71565b604082019050919050565b60006020820190508181036000830152611cfc81611cc0565b9050919050565b7f4552433732313a2063616c6c6572206973206e6f7420746f6b656e206f776e6560008201527f72206e6f7220617070726f766564000000000000000000000000000000000000602082015250565b6000611d5f602e8361169f565b9150611d6a82611d03565b604082019050919050565b60006020820190508181036000830152611d8e81611d52565b9050919050565b7f4552433732313a20696e76616c696420746f6b656e2049440000000000000000600082015250565b6000611dcb60188361169f565b9150611dd682611d95565b602082019050919050565b60006020820190508181036000830152611dfa81611dbe565b9050919050565b7f4552433732313a2061646472657373207a65726f206973206e6f74206120766160008201527f6c6964206f776e65720000000000000000000000000000000000000000000000602082015250565b6000611e5d60298361169f565b9150611e6882611e01565b604082019050919050565b60006020820190508181036000830152611e8c81611e50565b9050919050565b600081905092915050565b6000611ea982611694565b611eb38185611e93565b9350611ec38185602086016116b0565b80840191505092915050565b6000611edb8285611e9e565b9150611ee78284611e9e565b91508190509392505050565b7f4f776e61626c653a206e6577206f776e657220697320746865207a65726f206160008201527f6464726573730000000000000000000000000000000000000000000000000000602082015250565b6000611f4f60268361169f565b9150611f5a82611ef3565b604082019050919050565b60006020820190508181036000830152611f7e81611f42565b9050919050565b7f4552433732313a207472616e736665722066726f6d20696e636f72726563742060008201527f6f776e6572000000000000000000000000000000000000000000000000000000602082015250565b6000611fe160258361169f565b9150611fec82611f85565b604082019050919050565b6000602082019050818103600083015261201081611fd4565b9050919050565b7f4552433732313a207472616e7366657220746f20746865207a65726f2061646460008201527f7265737300000000000000000000000000000000000000000000000000000000602082015250565b600061207360248361169f565b915061207e82612017565b604082019050919050565b600060208201905081810360008301526120a281612066565b9050919050565b7f4e487b7100000000000000000000000000000000000000000000000000000000600052601160045260246000fd5b60006120e382611746565b91506120ee83611746565b9250828203905081811115612106576121056120a9565b5b92915050565b600061211782611746565b915061212283611746565b925082820190508082111561213a576121396120a9565b5b92915050565b7f4f776e61626c653a2063616c6c6572206973206e6f7420746865206f776e6572600082015250565b600061217660208361169f565b915061218182612140565b602082019050919050565b600060208201905081810360008301526121a581612169565b9050919050565b7f4552433732313a20617070726f766520746f2063616c6c657200000000000000600082015250565b60006121e260198361169f565b91506121ed826121ac565b602082019050919050565b60006020820190508181036000830152612211816121d5565b9050919050565b7f4552433732313a207472616e7366657220746f206e6f6e20455243373231526560008201527f63656976657220696d706c656d656e7465720000000000000000000000000000602082015250565b600061227460328361169f565b915061227f82612218565b604082019050919050565b600060208201905081810360008301526122a381612267565b9050919050565b60006122b582611746565b91507fffffffffffffffffffffffffffffffffffffffffffffffffffffffffffffffff82036122e7576122e66120a9565b5b600182019050919050565b7f4e487b7100000000000000000000000000000000000000000000000000000000600052601260045260246000fd5b600061232c82611746565b915061233783611746565b925082612347576123466122f2565b5b828204905092915050565b600061235d82611746565b915061236883611746565b925082612378576123776122f2565b5b828206905092915050565b7f4e487b7100000000000000000000000000000000000000000000000000000000600052603260045260246000fd5b600081519050919050565b600082825260208201905092915050565b60006123d9826123b2565b6123e381856123bd565b93506123f38185602086016116b0565b6123fc816116da565b840191505092915050565b600060808201905061241c60008301876117db565b61242960208301866117db565b61243660408301856118f1565b818103606083015261244881846123ce565b905095945050505050565b60008151905061246281611605565b92915050565b60006020828403121561247e5761247d6115cf565b5b600061248c84828501612453565b9150509291505056fea26469706673582212206117727a0747012d5549fa7e86275342d9aeff08d33c0e97a1486f47334b189864736f6c63430008110033",
  "linkReferences": {},
  "deployedLinkReferences": {}
}