{
  "_format": "hh-sol-artifact-1",
  "contractName": "NftHighFives",
  "sourceName": "contracts/NftHighFives.sol",
  "abi": [
    {
      "anonymous": false,
      "inputs": [
        {
          "indexed": true,
          "internalType": "contract IERC721",
          "name": "_token",
          "type": "address"
        },
        {
          "indexed": true,
          "internalType": "uint256",
          "name": "_tokenId",
          "type": "uint256"
        },
        {
          "indexed": true,
          "internalType": "address",
          "name": "_partner",
          "type": "address"
        }
      ],
      "name": "InteractionInitiated",
      "type": "event"
    },
    {
      "anonymous": false,
      "inputs": [
        {
          "indexed": true,
          "internalType": "contract IERC721",
          "name": "_token",
          "type": "address"
        },
        {
          "indexed": true,
          "internalType": "uint256",
          "name": "_tokenId",
          "type": "uint256"
        },
        {
          "indexed": true,
          "internalType": "address",
          "name": "_receiver",
          "type": "address"
        }
      ],
      "name": "InteractionReceived",
      "type": "event"
    },
    {
      "anonymous": false,
      "inputs": [
        {
          "indexed": true,
          "internalType": "contract IERC721",
          "name": "_token",
          "type": "address"
        },
        {
          "indexed": true,
          "internalType": "uint256",
          "name": "_tokenId",
          "type": "uint256"
        },
        {
          "indexed": true,
          "internalType": "address",
          "name": "_receiver",
          "type": "address"
        }
      ],
      "name": "InteractionRejected",
      "type": "event"
    },
    {
      "inputs": [
        {
          "internalType": "contract IERC721",
          "name": "_token",
          "type": "address"
        },
        {
          "internalType": "uint256",
          "name": "_tokenId",
          "type": "uint256"
        },
        {
          "internalType": "address",
          "name": "_receiver",
          "type": "address"
        }
      ],
      "name": "initiateHighFive",
      "outputs": [],
      "stateMutability": "nonpayable",
      "type": "function"
    },
    {
      "inputs": [
        {
          "internalType": "contract IERC721",
          "name": "",
          "type": "address"
        },
        {
          "internalType": "uint256",
          "name": "",
          "type": "uint256"
        },
        {
          "internalType": "address",
          "name": "",
          "type": "address"
        }
      ],
      "name": "nfts",
      "outputs": [
        {
          "internalType": "bool",
          "name": "verified",
          "type": "bool"
        },
        {
          "internalType": "bool",
          "name": "interactionPending",
          "type": "bool"
        }
      ],
      "stateMutability": "view",
      "type": "function"
    },
    {
      "inputs": [
        {
          "internalType": "contract IERC721",
          "name": "_token",
          "type": "address"
        },
        {
          "internalType": "uint256",
          "name": "_tokenId",
          "type": "uint256"
        }
      ],
      "name": "receiveHighFive",
      "outputs": [],
      "stateMutability": "nonpayable",
      "type": "function"
    },
    {
      "inputs": [
        {
          "internalType": "contract IERC721",
          "name": "_token",
          "type": "address"
        },
        {
          "internalType": "uint256",
          "name": "_tokenId",
          "type": "uint256"
        }
      ],
      "name": "rejectHighFive",
      "outputs": [],
      "stateMutability": "nonpayable",
      "type": "function"
    }
  ],
  "bytecode": "0x608060405234801561001057600080fd5b50610d99806100206000396000f3fe608060405234801561001057600080fd5b506004361061004c5760003560e01c806304819444146100515780634a6fd1401461006d578063582e1c31146100895780637c9f08c7146100a5575b600080fd5b61006b60048036038101906100669190610a5f565b6100d6565b005b61008760048036038101906100829190610ab2565b6103a2565b005b6100a3600480360381019061009e9190610ab2565b610669565b005b6100bf60048036038101906100ba9190610a5f565b610930565b6040516100cd929190610b0d565b60405180910390f35b6000808473ffffffffffffffffffffffffffffffffffffffff1673ffffffffffffffffffffffffffffffffffffffff168152602001908152602001600020600083815260200190815260200160002060008273ffffffffffffffffffffffffffffffffffffffff1673ffffffffffffffffffffffffffffffffffffffff16815260200190815260200160002060000160009054906101000a900460ff16156101b3576040517f08c379a00000000000000000000000000000000000000000000000000000000081526004016101aa90610b93565b60405180910390fd5b3373ffffffffffffffffffffffffffffffffffffffff168373ffffffffffffffffffffffffffffffffffffffff16636352211e846040518263ffffffff1660e01b81526004016102039190610bc2565b602060405180830381865afa158015610220573d6000803e3d6000fd5b505050506040513d601f19601f820116820180604052508101906102449190610bf2565b73ffffffffffffffffffffffffffffffffffffffff161461029a576040517f08c379a000000000000000000000000000000000000000000000000000000000815260040161029190610c6b565b60405180910390fd5b60016000808573ffffffffffffffffffffffffffffffffffffffff1673ffffffffffffffffffffffffffffffffffffffff168152602001908152602001600020600084815260200190815260200160002060008373ffffffffffffffffffffffffffffffffffffffff1673ffffffffffffffffffffffffffffffffffffffff16815260200190815260200160002060000160016101000a81548160ff0219169083151502179055508073ffffffffffffffffffffffffffffffffffffffff16828473ffffffffffffffffffffffffffffffffffffffff167fadf1926e545e5cce9c8850bca2273870601de566dfdd4a89b4621cfc15abc0ba60405160405180910390a4505050565b6000808373ffffffffffffffffffffffffffffffffffffffff1673ffffffffffffffffffffffffffffffffffffffff168152602001908152602001600020600082815260200190815260200160002060003373ffffffffffffffffffffffffffffffffffffffff1673ffffffffffffffffffffffffffffffffffffffff16815260200190815260200160002060000160009054906101000a900460ff161561047f576040517f08c379a000000000000000000000000000000000000000000000000000000000815260040161047690610cd7565b60405180910390fd5b600115156000808473ffffffffffffffffffffffffffffffffffffffff1673ffffffffffffffffffffffffffffffffffffffff168152602001908152602001600020600083815260200190815260200160002060003373ffffffffffffffffffffffffffffffffffffffff1673ffffffffffffffffffffffffffffffffffffffff16815260200190815260200160002060000160019054906101000a900460ff16151514610562576040517f08c379a000000000000000000000000000000000000000000000000000000000815260040161055990610d43565b60405180910390fd5b60008060008473ffffffffffffffffffffffffffffffffffffffff1673ffffffffffffffffffffffffffffffffffffffff168152602001908152602001600020600083815260200190815260200160002060003373ffffffffffffffffffffffffffffffffffffffff1673ffffffffffffffffffffffffffffffffffffffff16815260200190815260200160002060000160016101000a81548160ff0219169083151502179055503373ffffffffffffffffffffffffffffffffffffffff16818373ffffffffffffffffffffffffffffffffffffffff167fcea998538ba0b2ed03f94ed72c89a776ed76d9b478e81cf82fb118df57780a5960405160405180910390a45050565b6000808373ffffffffffffffffffffffffffffffffffffffff1673ffffffffffffffffffffffffffffffffffffffff168152602001908152602001600020600082815260200190815260200160002060003373ffffffffffffffffffffffffffffffffffffffff1673ffffffffffffffffffffffffffffffffffffffff16815260200190815260200160002060000160009054906101000a900460ff1615610746576040517f08c379a000000000000000000000000000000000000000000000000000000000815260040161073d90610cd7565b60405180910390fd5b600115156000808473ffffffffffffffffffffffffffffffffffffffff1673ffffffffffffffffffffffffffffffffffffffff168152602001908152602001600020600083815260200190815260200160002060003373ffffffffffffffffffffffffffffffffffffffff1673ffffffffffffffffffffffffffffffffffffffff16815260200190815260200160002060000160019054906101000a900460ff16151514610829576040517f08c379a000000000000000000000000000000000000000000000000000000000815260040161082090610d43565b60405180910390fd5b60016000808473ffffffffffffffffffffffffffffffffffffffff1673ffffffffffffffffffffffffffffffffffffffff168152602001908152602001600020600083815260200190815260200160002060003373ffffffffffffffffffffffffffffffffffffffff1673ffffffffffffffffffffffffffffffffffffffff16815260200190815260200160002060000160006101000a81548160ff0219169083151502179055503373ffffffffffffffffffffffffffffffffffffffff16818373ffffffffffffffffffffffffffffffffffffffff167f13fa9db6fa50bdc5b2ff267ca0f9c0f5a7725758ca024ee03ef5f264ae105d1a60405160405180910390a45050565b600060205282600052604060002060205281600052604060002060205280600052604060002060009250925050508060000160009054906101000a900460ff16908060000160019054906101000a900460ff16905082565b600080fd5b600073ffffffffffffffffffffffffffffffffffffffff82169050919050565b60006109b88261098d565b9050919050565b60006109ca826109ad565b9050919050565b6109da816109bf565b81146109e557600080fd5b50565b6000813590506109f7816109d1565b92915050565b6000819050919050565b610a10816109fd565b8114610a1b57600080fd5b50565b600081359050610a2d81610a07565b92915050565b610a3c816109ad565b8114610a4757600080fd5b50565b600081359050610a5981610a33565b92915050565b600080600060608486031215610a7857610a77610988565b5b6000610a86868287016109e8565b9350506020610a9786828701610a1e565b9250506040610aa886828701610a4a565b9150509250925092565b60008060408385031215610ac957610ac8610988565b5b6000610ad7858286016109e8565b9250506020610ae885828601610a1e565b9150509250929050565b60008115159050919050565b610b0781610af2565b82525050565b6000604082019050610b226000830185610afe565b610b2f6020830184610afe565b9392505050565b600082825260208201905092915050565b7f416c726561647920766572696669656400000000000000000000000000000000600082015250565b6000610b7d601083610b36565b9150610b8882610b47565b602082019050919050565b60006020820190508181036000830152610bac81610b70565b9050919050565b610bbc816109fd565b82525050565b6000602082019050610bd76000830184610bb3565b92915050565b600081519050610bec81610a33565b92915050565b600060208284031215610c0857610c07610988565b5b6000610c1684828501610bdd565b91505092915050565b7f4e4654206e6f74206f776e65642062792073656e646572000000000000000000600082015250565b6000610c55601783610b36565b9150610c6082610c1f565b602082019050919050565b60006020820190508181036000830152610c8481610c48565b9050919050565b7f416c726561647920566572696669656400000000000000000000000000000000600082015250565b6000610cc1601083610b36565b9150610ccc82610c8b565b602082019050919050565b60006020820190508181036000830152610cf081610cb4565b9050919050565b7f4e6f20726571756573742073656e740000000000000000000000000000000000600082015250565b6000610d2d600f83610b36565b9150610d3882610cf7565b602082019050919050565b60006020820190508181036000830152610d5c81610d20565b905091905056fea2646970667358221220f55a4e448e81504c9175bfb59b770cce15ff7c48a7efb2f90a121880518327bc64736f6c63430008110033",
  "linkReferences": {},
  "deployedLinkReferences": {}
}