{
  "_format": "hh-sol-artifact-1",
  "contractName": "NftHighFives",
  "sourceName": "contracts/NftHighFives.sol",
  "abi": [
    {
      "inputs": [
        {
          "internalType": "contract IERC721",
          "name": "_Nft",
          "type": "address"
        }
      ],
      "stateMutability": "nonpayable",
      "type": "constructor"
    },
    {
      "anonymous": false,
      "inputs": [
        {
          "indexed": true,
          "internalType": "address",
          "name": "previousOwner",
          "type": "address"
        },
        {
          "indexed": true,
          "internalType": "address",
          "name": "newOwner",
          "type": "address"
        }
      ],
      "name": "OwnershipTransferred",
      "type": "event"
    },
    {
      "anonymous": false,
      "inputs": [
        {
          "indexed": true,
          "internalType": "address",
          "name": "_partner",
          "type": "address"
        }
      ],
      "name": "highFiveInitiated",
      "type": "event"
    },
    {
      "inputs": [
        {
          "internalType": "contract IERC721",
          "name": "",
          "type": "address"
        },
        {
          "internalType": "address",
          "name": "",
          "type": "address"
        }
      ],
      "name": "NFTs",
      "outputs": [
        {
          "internalType": "bool",
          "name": "highFived",
          "type": "bool"
        },
        {
          "internalType": "bool",
          "name": "interactionPending",
          "type": "bool"
        }
      ],
      "stateMutability": "view",
      "type": "function"
    },
    {
      "inputs": [
        {
          "internalType": "address",
          "name": "_partner",
          "type": "address"
        }
      ],
      "name": "initiateHighFive",
      "outputs": [],
      "stateMutability": "nonpayable",
      "type": "function"
    },
    {
      "inputs": [],
      "name": "owner",
      "outputs": [
        {
          "internalType": "address",
          "name": "",
          "type": "address"
        }
      ],
      "stateMutability": "view",
      "type": "function"
    },
    {
      "inputs": [
        {
          "internalType": "address",
          "name": "_partner",
          "type": "address"
        },
        {
          "internalType": "bool",
          "name": "_decision",
          "type": "bool"
        }
      ],
      "name": "receiveHighFive",
      "outputs": [],
      "stateMutability": "nonpayable",
      "type": "function"
    },
    {
      "inputs": [],
      "name": "renounceOwnership",
      "outputs": [],
      "stateMutability": "nonpayable",
      "type": "function"
    },
    {
      "inputs": [
        {
          "internalType": "address",
          "name": "newOwner",
          "type": "address"
        }
      ],
      "name": "transferOwnership",
      "outputs": [],
      "stateMutability": "nonpayable",
      "type": "function"
    }
  ],
  "bytecode": "0x608060405234801561001057600080fd5b5060405161087638038061087683398181016040528101906100329190610195565b61004e61004361005460201b60201c565b61005c60201b60201c565b506101c2565b600033905090565b60008060009054906101000a900473ffffffffffffffffffffffffffffffffffffffff169050816000806101000a81548173ffffffffffffffffffffffffffffffffffffffff021916908373ffffffffffffffffffffffffffffffffffffffff1602179055508173ffffffffffffffffffffffffffffffffffffffff168173ffffffffffffffffffffffffffffffffffffffff167f8be0079c531659141344cd1fd0a4f28419497f9722a3daafe3b4186f6b6457e060405160405180910390a35050565b600080fd5b600073ffffffffffffffffffffffffffffffffffffffff82169050919050565b600061015082610125565b9050919050565b600061016282610145565b9050919050565b61017281610157565b811461017d57600080fd5b50565b60008151905061018f81610169565b92915050565b6000602082840312156101ab576101aa610120565b5b60006101b984828501610180565b91505092915050565b6106a5806101d16000396000f3fe608060405234801561001057600080fd5b50600436106100625760003560e01c8063495adc4114610067578063715018a6146100985780638da5cb5b146100a2578063c714881a146100c0578063d7da4517146100dc578063f2fde38b146100f8575b600080fd5b610081600480360381019061007c9190610419565b610114565b60405161008f929190610474565b60405180910390f35b6100a061015f565b005b6100aa610173565b6040516100b791906104ac565b60405180910390f35b6100da60048036038101906100d591906104c7565b61019c565b005b6100f660048036038101906100f19190610520565b61019f565b005b610112600480360381019061010d91906104c7565b6101ab565b005b6001602052816000526040600020602052806000526040600020600091509150508060000160009054906101000a900460ff16908060000160019054906101000a900460ff16905082565b61016761022e565b61017160006102ac565b565b60008060009054906101000a900473ffffffffffffffffffffffffffffffffffffffff16905090565b50565b6101a761022e565b5050565b6101b361022e565b600073ffffffffffffffffffffffffffffffffffffffff168173ffffffffffffffffffffffffffffffffffffffff1603610222576040517f08c379a0000000000000000000000000000000000000000000000000000000008152600401610219906105e3565b60405180910390fd5b61022b816102ac565b50565b610236610370565b73ffffffffffffffffffffffffffffffffffffffff16610254610173565b73ffffffffffffffffffffffffffffffffffffffff16146102aa576040517f08c379a00000000000000000000000000000000000000000000000000000000081526004016102a19061064f565b60405180910390fd5b565b60008060009054906101000a900473ffffffffffffffffffffffffffffffffffffffff169050816000806101000a81548173ffffffffffffffffffffffffffffffffffffffff021916908373ffffffffffffffffffffffffffffffffffffffff1602179055508173ffffffffffffffffffffffffffffffffffffffff168173ffffffffffffffffffffffffffffffffffffffff167f8be0079c531659141344cd1fd0a4f28419497f9722a3daafe3b4186f6b6457e060405160405180910390a35050565b600033905090565b600080fd5b600073ffffffffffffffffffffffffffffffffffffffff82169050919050565b60006103a88261037d565b9050919050565b60006103ba8261039d565b9050919050565b6103ca816103af565b81146103d557600080fd5b50565b6000813590506103e7816103c1565b92915050565b6103f68161039d565b811461040157600080fd5b50565b600081359050610413816103ed565b92915050565b600080604083850312156104305761042f610378565b5b600061043e858286016103d8565b925050602061044f85828601610404565b9150509250929050565b60008115159050919050565b61046e81610459565b82525050565b60006040820190506104896000830185610465565b6104966020830184610465565b9392505050565b6104a68161039d565b82525050565b60006020820190506104c1600083018461049d565b92915050565b6000602082840312156104dd576104dc610378565b5b60006104eb84828501610404565b91505092915050565b6104fd81610459565b811461050857600080fd5b50565b60008135905061051a816104f4565b92915050565b6000806040838503121561053757610536610378565b5b600061054585828601610404565b92505060206105568582860161050b565b9150509250929050565b600082825260208201905092915050565b7f4f776e61626c653a206e6577206f776e657220697320746865207a65726f206160008201527f6464726573730000000000000000000000000000000000000000000000000000602082015250565b60006105cd602683610560565b91506105d882610571565b604082019050919050565b600060208201905081810360008301526105fc816105c0565b9050919050565b7f4f776e61626c653a2063616c6c6572206973206e6f7420746865206f776e6572600082015250565b6000610639602083610560565b915061064482610603565b602082019050919050565b600060208201905081810360008301526106688161062c565b905091905056fea26469706673582212207006558dd176f1fed1f22b0b8cb2b675a1419df5f8e2b23b724ab26252bbec3c64736f6c63430008110033",
  "linkReferences": {},
  "deployedLinkReferences": {}
}