{
  "_format": "hh-sol-artifact-1",
  "contractName": "NftHighFives",
  "sourceName": "contracts/NftHighFives.sol",
  "abi": [
    {
      "anonymous": false,
      "inputs": [
        {
          "indexed": true,
          "internalType": "contract IERC721",
          "name": "_token",
          "type": "address"
        },
        {
          "indexed": true,
          "internalType": "uint256",
          "name": "_tokenId",
          "type": "uint256"
        },
        {
          "indexed": true,
          "internalType": "address",
          "name": "_receiver",
          "type": "address"
        }
      ],
      "name": "InteractionInitiated",
      "type": "event"
    },
    {
      "anonymous": false,
      "inputs": [
        {
          "indexed": true,
          "internalType": "contract IERC721",
          "name": "_token",
          "type": "address"
        },
        {
          "indexed": true,
          "internalType": "uint256",
          "name": "_tokenId",
          "type": "uint256"
        },
        {
          "indexed": true,
          "internalType": "address",
          "name": "_receiver",
          "type": "address"
        }
      ],
      "name": "InteractionReceived",
      "type": "event"
    },
    {
      "anonymous": false,
      "inputs": [
        {
          "indexed": true,
          "internalType": "contract IERC721",
          "name": "_token",
          "type": "address"
        },
        {
          "indexed": true,
          "internalType": "uint256",
          "name": "_tokenId",
          "type": "uint256"
        },
        {
          "indexed": true,
          "internalType": "address",
          "name": "_receiver",
          "type": "address"
        }
      ],
      "name": "InteractionRejected",
      "type": "event"
    },
    {
      "inputs": [
        {
          "internalType": "contract IERC721",
          "name": "_token",
          "type": "address"
        },
        {
          "internalType": "uint256",
          "name": "_tokenId",
          "type": "uint256"
        },
        {
          "internalType": "address",
          "name": "_receiver",
          "type": "address"
        }
      ],
      "name": "initiateHighFive",
      "outputs": [],
      "stateMutability": "nonpayable",
      "type": "function"
    },
    {
      "inputs": [
        {
          "internalType": "contract IERC721",
          "name": "",
          "type": "address"
        },
        {
          "internalType": "uint256",
          "name": "",
          "type": "uint256"
        },
        {
          "internalType": "address",
          "name": "",
          "type": "address"
        }
      ],
      "name": "nfts",
      "outputs": [
        {
          "internalType": "bool",
          "name": "verified",
          "type": "bool"
        },
        {
          "internalType": "bool",
          "name": "interactionPending",
          "type": "bool"
        }
      ],
      "stateMutability": "view",
      "type": "function"
    },
    {
      "inputs": [
        {
          "internalType": "contract IERC721",
          "name": "_token",
          "type": "address"
        },
        {
          "internalType": "uint256",
          "name": "_tokenId",
          "type": "uint256"
        },
        {
          "internalType": "address",
          "name": "_receiver",
          "type": "address"
        }
      ],
      "name": "readData",
      "outputs": [
        {
          "internalType": "bool",
          "name": "",
          "type": "bool"
        },
        {
          "internalType": "bool",
          "name": "",
          "type": "bool"
        }
      ],
      "stateMutability": "view",
      "type": "function"
    },
    {
      "inputs": [
        {
          "internalType": "contract IERC721",
          "name": "_token",
          "type": "address"
        },
        {
          "internalType": "uint256",
          "name": "_tokenId",
          "type": "uint256"
        }
      ],
      "name": "receiveHighFive",
      "outputs": [],
      "stateMutability": "nonpayable",
      "type": "function"
    },
    {
      "inputs": [
        {
          "internalType": "contract IERC721",
          "name": "_token",
          "type": "address"
        },
        {
          "internalType": "uint256",
          "name": "_tokenId",
          "type": "uint256"
        }
      ],
      "name": "rejectHighFive",
      "outputs": [],
      "stateMutability": "nonpayable",
      "type": "function"
    }
  ],
  "bytecode": "0x608060405234801561001057600080fd5b50611416806100206000396000f3fe608060405234801561001057600080fd5b50600436106100575760003560e01c8063048194441461005c5780634a6fd14014610078578063582e1c31146100945780637c9f08c7146100b0578063e186a3dc146100e1575b600080fd5b610076600480360381019061007191906110dc565b610112565b005b610092600480360381019061008d919061112f565b6105fb565b005b6100ae60048036038101906100a9919061112f565b6109b2565b005b6100ca60048036038101906100c591906110dc565b610e25565b6040516100d892919061118a565b60405180910390f35b6100fb60048036038101906100f691906110dc565b610e7d565b60405161010992919061118a565b60405180910390f35b6101266773c605eccdfdce4b60c01b611002565b61013a6748102323a5e99f5060c01b611002565b61014e6775e93f6014703d9060c01b611002565b61016267e2b90dff523ba96460c01b611002565b6000808473ffffffffffffffffffffffffffffffffffffffff1673ffffffffffffffffffffffffffffffffffffffff168152602001908152602001600020600083815260200190815260200160002060008273ffffffffffffffffffffffffffffffffffffffff1673ffffffffffffffffffffffffffffffffffffffff16815260200190815260200160002060000160009054906101000a900460ff161561023f576040517f08c379a000000000000000000000000000000000000000000000000000000000815260040161023690611210565b60405180910390fd5b61025367ce636abc6e9e3f6560c01b611002565b610267676abd93a91be43c8e60c01b611002565b61027b6731453f2a1783397360c01b611002565b61028f675bdbabe64c2ed26460c01b611002565b3373ffffffffffffffffffffffffffffffffffffffff168373ffffffffffffffffffffffffffffffffffffffff16636352211e846040518263ffffffff1660e01b81526004016102df919061123f565b602060405180830381865afa1580156102fc573d6000803e3d6000fd5b505050506040513d601f19601f82011682018060405250810190610320919061126f565b73ffffffffffffffffffffffffffffffffffffffff1614610376576040517f08c379a000000000000000000000000000000000000000000000000000000000815260040161036d906112e8565b60405180910390fd5b61038a67f37ea8493591cdfd60c01b611002565b61039e671dcda23cbcea493360c01b611002565b6103b267718b89bc4f24822a60c01b611002565b6103c667472a1a99554c07b360c01b611002565b6000808473ffffffffffffffffffffffffffffffffffffffff1673ffffffffffffffffffffffffffffffffffffffff168152602001908152602001600020600083815260200190815260200160002060008273ffffffffffffffffffffffffffffffffffffffff1673ffffffffffffffffffffffffffffffffffffffff16815260200190815260200160002060000160019054906101000a900460ff16156104a3576040517f08c379a000000000000000000000000000000000000000000000000000000000815260040161049a90611354565b60405180910390fd5b6104b767ebb0d97193e19e2a60c01b611002565b6104cb6763e0203e8e81554660c01b611002565b60016000808573ffffffffffffffffffffffffffffffffffffffff1673ffffffffffffffffffffffffffffffffffffffff168152602001908152602001600020600084815260200190815260200160002060008373ffffffffffffffffffffffffffffffffffffffff1673ffffffffffffffffffffffffffffffffffffffff16815260200190815260200160002060000160016101000a81548160ff0219169083151502179055506105876768d23cb282a949f460c01b611002565b61059b67ebf1bebf4377a08960c01b611002565b8073ffffffffffffffffffffffffffffffffffffffff16828473ffffffffffffffffffffffffffffffffffffffff167fadf1926e545e5cce9c8850bca2273870601de566dfdd4a89b4621cfc15abc0ba60405160405180910390a4505050565b61060f67bb7948309404ce9760c01b611002565b6106236790828e85b6eb6fd560c01b611002565b610637677cf0667901656dd560c01b611002565b61064b6776620e429ff1c15460c01b611002565b6000808373ffffffffffffffffffffffffffffffffffffffff1673ffffffffffffffffffffffffffffffffffffffff168152602001908152602001600020600082815260200190815260200160002060003373ffffffffffffffffffffffffffffffffffffffff1673ffffffffffffffffffffffffffffffffffffffff16815260200190815260200160002060000160009054906101000a900460ff1615610728576040517f08c379a000000000000000000000000000000000000000000000000000000000815260040161071f90611210565b60405180910390fd5b61073c678bdf2fa7b7c6bfa960c01b611002565b610750674b3b22cc9503f62d60c01b611002565b61076467f29e033c297601a560c01b611002565b6107786702c835390c03a51e60c01b611002565b600115156000808473ffffffffffffffffffffffffffffffffffffffff1673ffffffffffffffffffffffffffffffffffffffff168152602001908152602001600020600083815260200190815260200160002060003373ffffffffffffffffffffffffffffffffffffffff1673ffffffffffffffffffffffffffffffffffffffff16815260200190815260200160002060000160019054906101000a900460ff1615151461085b576040517f08c379a0000000000000000000000000000000000000000000000000000000008152600401610852906113c0565b60405180910390fd5b61086f67acb0f51731186ce760c01b611002565b61088367d5c2eaaccbfe92c560c01b611002565b60008060008473ffffffffffffffffffffffffffffffffffffffff1673ffffffffffffffffffffffffffffffffffffffff168152602001908152602001600020600083815260200190815260200160002060003373ffffffffffffffffffffffffffffffffffffffff1673ffffffffffffffffffffffffffffffffffffffff16815260200190815260200160002060000160016101000a81548160ff02191690831515021790555061093f67f47e3df24ec5b9a360c01b611002565b61095367feaad48b266473d960c01b611002565b3373ffffffffffffffffffffffffffffffffffffffff16818373ffffffffffffffffffffffffffffffffffffffff167fcea998538ba0b2ed03f94ed72c89a776ed76d9b478e81cf82fb118df57780a5960405160405180910390a45050565b6109c667b71792d9495ff01460c01b611002565b6109da674186ddc44764014c60c01b611002565b6109ee6758d9123f8a07211960c01b611002565b610a0267fbefecac1f07750360c01b611002565b6000808373ffffffffffffffffffffffffffffffffffffffff1673ffffffffffffffffffffffffffffffffffffffff168152602001908152602001600020600082815260200190815260200160002060003373ffffffffffffffffffffffffffffffffffffffff1673ffffffffffffffffffffffffffffffffffffffff16815260200190815260200160002060000160009054906101000a900460ff1615610adf576040517f08c379a0000000000000000000000000000000000000000000000000000000008152600401610ad690611210565b60405180910390fd5b610af367fc10c7dab9c5bfa360c01b611002565b610b0767840dc960e1fdb84d60c01b611002565b610b1b67a6db8ba3fd42626560c01b611002565b610b2f67a41ba869219f001960c01b611002565b600115156000808473ffffffffffffffffffffffffffffffffffffffff1673ffffffffffffffffffffffffffffffffffffffff168152602001908152602001600020600083815260200190815260200160002060003373ffffffffffffffffffffffffffffffffffffffff1673ffffffffffffffffffffffffffffffffffffffff16815260200190815260200160002060000160019054906101000a900460ff16151514610c12576040517f08c379a0000000000000000000000000000000000000000000000000000000008152600401610c09906113c0565b60405180910390fd5b610c26673b82e4abc4f9ef3660c01b611002565b610c3a67c779c064594b74a160c01b611002565b60016000808473ffffffffffffffffffffffffffffffffffffffff1673ffffffffffffffffffffffffffffffffffffffff168152602001908152602001600020600083815260200190815260200160002060003373ffffffffffffffffffffffffffffffffffffffff1673ffffffffffffffffffffffffffffffffffffffff16815260200190815260200160002060000160006101000a81548160ff021916908315150217905550610cf6675d99316b99963bb160c01b611002565b60008060008473ffffffffffffffffffffffffffffffffffffffff1673ffffffffffffffffffffffffffffffffffffffff168152602001908152602001600020600083815260200190815260200160002060003373ffffffffffffffffffffffffffffffffffffffff1673ffffffffffffffffffffffffffffffffffffffff16815260200190815260200160002060000160016101000a81548160ff021916908315150217905550610db2674996239d3bf3f7fa60c01b611002565b610dc667d68f9f4cd2dc394060c01b611002565b3373ffffffffffffffffffffffffffffffffffffffff16818373ffffffffffffffffffffffffffffffffffffffff167f13fa9db6fa50bdc5b2ff267ca0f9c0f5a7725758ca024ee03ef5f264ae105d1a60405160405180910390a45050565b600060205282600052604060002060205281600052604060002060205280600052604060002060009250925050508060000160009054906101000a900460ff16908060000160019054906101000a900460ff16905082565b600080610e9467b2edde7137f0339560c01b611002565b610ea8670cdd398ad794948460c01b611002565b610ebc67ae29af305f87758160c01b611002565b6000808673ffffffffffffffffffffffffffffffffffffffff1673ffffffffffffffffffffffffffffffffffffffff168152602001908152602001600020600085815260200190815260200160002060008473ffffffffffffffffffffffffffffffffffffffff1673ffffffffffffffffffffffffffffffffffffffff16815260200190815260200160002060000160009054906101000a900460ff166000808773ffffffffffffffffffffffffffffffffffffffff1673ffffffffffffffffffffffffffffffffffffffff168152602001908152602001600020600086815260200190815260200160002060008573ffffffffffffffffffffffffffffffffffffffff1673ffffffffffffffffffffffffffffffffffffffff16815260200190815260200160002060000160019054906101000a900460ff1691509150935093915050565b50565b600080fd5b600073ffffffffffffffffffffffffffffffffffffffff82169050919050565b60006110358261100a565b9050919050565b60006110478261102a565b9050919050565b6110578161103c565b811461106257600080fd5b50565b6000813590506110748161104e565b92915050565b6000819050919050565b61108d8161107a565b811461109857600080fd5b50565b6000813590506110aa81611084565b92915050565b6110b98161102a565b81146110c457600080fd5b50565b6000813590506110d6816110b0565b92915050565b6000806000606084860312156110f5576110f4611005565b5b600061110386828701611065565b93505060206111148682870161109b565b9250506040611125868287016110c7565b9150509250925092565b6000806040838503121561114657611145611005565b5b600061115485828601611065565b92505060206111658582860161109b565b9150509250929050565b60008115159050919050565b6111848161116f565b82525050565b600060408201905061119f600083018561117b565b6111ac602083018461117b565b9392505050565b600082825260208201905092915050565b7f416c726561647920766572696669656400000000000000000000000000000000600082015250565b60006111fa6010836111b3565b9150611205826111c4565b602082019050919050565b60006020820190508181036000830152611229816111ed565b9050919050565b6112398161107a565b82525050565b60006020820190506112546000830184611230565b92915050565b600081519050611269816110b0565b92915050565b60006020828403121561128557611284611005565b5b60006112938482850161125a565b91505092915050565b7f4e4654206e6f74206f776e65642062792073656e646572000000000000000000600082015250565b60006112d26017836111b3565b91506112dd8261129c565b602082019050919050565b60006020820190508181036000830152611301816112c5565b9050919050565b7f416c726561647920696e69746961746564000000000000000000000000000000600082015250565b600061133e6011836111b3565b915061134982611308565b602082019050919050565b6000602082019050818103600083015261136d81611331565b9050919050565b7f4e6f20726571756573742070656e64696e670000000000000000000000000000600082015250565b60006113aa6012836111b3565b91506113b582611374565b602082019050919050565b600060208201905081810360008301526113d98161139d565b905091905056fea2646970667358221220799fe764716e7b1e6471699a649cb4cb188c73ed05feccd8654853d58dfe788964736f6c63430008110033",
  "linkReferences": {},
  "deployedLinkReferences": {}
}